:020000040800F2
:1000000000500020110E0008590E0008590E00087B
:10001000590E0008590E0008590E00080000000093
:100020000000000000000000000000007106000851
:10003000590E000800000000A1060008E9060008AB
:10004000590E0008590E0008590E0008590E0008F4
:10005000590E0008590E0008590E0008590E0008E4
:10006000590E0008590E0008590E0008590E0008D4
:10007000590E0008590E0008590E0008590E0008C4
:10008000590E0008590E0008590E0008590E0008B4
:10009000590E0008590E0008590E0008590E0008A4
:1000A000590E0008590E0008590E0008590E000894
:1000B000590E0008590E0008590E0008590E000884
:1000C000590E0008590E0008590E0008590E000874
:1000D000590E0008590E0008590E0008590E000864
:1000E000590E0008590E0008590E000800000000C3
:1000F0000000000000000000000000000000000000
:04010000590E00088C
:10011000844641EA000313F0030349D1403A23D354
:100120000B6803604B6843608B688360CB68C36077
:100130000B6903614B6943618B698361CB69C3615F
:100140000B6A03624B6A43628B6A8362CB6AC36247
:100150000B6B03634B6B43638B6B8363CB6BC3632F
:1001600040304031403ADBD230320BD30B68036071
:100170004B6843608B688360CB68C360103010317C
:10018000103AF3D20C3205D351F8043B40F8043B4B
:10019000043AF9D2043208D0D2071CBF11F8013B4F
:1001A00000F8013B01D30B8803806046704700BF15
:1001B000082A13D38B07B1D010F00303AED0C3F1DC
:1001C0000403D21ADB071CBF11F8013B00F8013B06
:1001D000A4D331F8023B20F8023B9FE7043AD9D37D
:1001E000013A11F8013B00F8013BF9D20B7803709A
:1001F0004B7843708B788370604670470348044B9C
:10020000834202D0034B03B11847704738060020E1
:1002100038060020000000000548064B1B1AD90FC5
:1002200001EBA301491002D0034B03B118477047FB
:1002300038060020380600200000000010B5064CEB
:10024000237843B9FFF7DAFF044B13B10448AFF347
:1002500000800123237010BD38060020000000003C
:10026000842A000808B5054B1BB105490548AFF3C2
:100270000080BDE80840FFF7CFBF00BF00000000CE
:100280003C060020842A000880B500AF00F07AF810
:1002900000BF80BD80B582B000AF364B1B68354AC9
:1002A00043F00103136000BF324B1B6803F00203ED
:1002B000002BF9D0304B1B682F4A43F080031360AA
:1002C00000237B6002E07B6801337B607B684F2BFF
:1002D000F9D9294B1B68284A43F090031360002387
:1002E0007B6002E07B6801337B607B684F2BF9D930
:1002F000214B1B68204A23F0030313601D4B1B682E
:100300001C4A23F0847323F4803313601A4B1A6859
:1003100019491A4B13400B60164B1B68154A23F002
:10032000847323F480331360124B1B68114A23F447
:1003300080231360104B1B680F4A23F00F6323F4D4
:10034000702313600B4B1B680A4A23F0847323F459
:10035000803313600A4B4FF41F021A60FFF794FFBB
:1003600000214FF0006000F049F900BF0837BD469A
:1003700080BD00BF00100240041002400C00FFE8E6
:100380000810024080B483B000AF00237B600023DC
:100390003B60374B1B68364A43F4803313607B68FD
:1003A00001337B60324B1B6803F400333B603B68D6
:1003B000002B04D17B684FF6FF729342EFD12C4B98
:1003C0001B6803F40033002B01D100BFFDE7294B6C
:1003D000284A1B681360274B264A1B681360254B6D
:1003E0001B68244A43F480631360224B1B68214A34
:1003F00023F4403313601F4B1B681E4A43F4403301
:1004000013601C4B1B681B4A23F0036323F4402337
:100410001360184B1B68174A43F0026343F4002330
:100420001360134B1B68124A43F08073136000BFC4
:100430000F4B1B6803F00073002BF9D00D4B1B68AA
:100440000C4A23F0030313600A4B1B68094A43F06C
:100450000203136000BF074B1B6803F00C03082B5B
:10046000F9D100BF00BF0C37BD4680BC704700BF4C
:10047000001002400410024080B489B000AFF86060
:10048000B9607A603B600023BB6100237B61BB687D
:1004900003F00F03BB61BB6803F01003002B03D014
:1004A000BA697B681343BB610023FB8339E0FB8B94
:1004B00001229A403B681340002B2FD0FB681B6839
:1004C0007B61FB8B9B000F2202FA03F3DB437A690B
:1004D00013407B61FB8B9B00BA6902FA03F37A69D4
:1004E00013437B61BB68282B09D1FB8B01229A4007
:1004F000FB68143319463B6813400B600BE0BB6884
:10050000482B08D1FB8B01229A40FB681033194617
:100510003B6813400B60FB687A691A60FB8B013300
:10052000FB83FB8B072BC2D90823FB833EE0FB8BAD
:1005300001229A403B681340002B34D0FB680433FF
:100540001B687B61FB8B083B9B000F2202FA03F3C5
:10055000DB437A6913407B61FB8B083B9B00BA69E4
:1005600002FA03F37A6913437B61BB68282B09D134
:10057000FB8B01229A40FB68143319463B681340F9
:100580000B600BE0BB68482B08D1FB8B01229A4023
:10059000FB68103319463B6813400B60FB6804335B
:1005A0001A467B691360FB8B0133FB83FB8B0F2B9C
:1005B000BDD900BF00BF2437BD4680BC704780B4A2
:1005C00083B000AF786039607B6810331A463B68AF
:1005D000136000BF0C37BD4680BC704780B483B049
:1005E00000AF786039607B6814331A463B6813604B
:1005F00000BF0C37BD4680BC7047000080B483B09C
:1006000000AF786039603B6823F0604323F07F03DC
:1006100005497A6813438B60BFF34F8F00BF00BF5B
:100620000C37BD4680BC704700ED00E080B483B05D
:1006300000AF0346FB80FB889B099BB203F180431C
:1006400003F504331968FB8803F01F0301229A4065
:10065000FB889B099BB203F1804303F504331846E2
:1006600041EA0203036000BF0C37BD4680BC7047FF
:10067000074B19680868B0E8F00F80F30988BFF3EA
:100680006F8F4FF0000080F311884EF00D0E704711
:100690005406002000BF00BF000000000000000062
:1006A000EFF30980BFF36F8F0D4B1A6820E9F00F4D
:1006B000106008B54FF0500080F3118800F03CF94D
:1006C0004FF0000080F31188BDE808401968086801
:1006D000B0E8F00F80F30988BFF36F8F704700BF59
:1006E0005406002000BF00BF80B582B000AF4FF0BD
:1006F000500383F31188BFF36F8FBFF34F8F7B607D
:1007000000BF00F05FF80346002B03D0064B4FF00C
:1007100080521A6000233B603B6883F3118800BF5E
:1007200000BF0837BD4680BD04ED00E080B485B051
:1007300000AF786039607B685B68FB603B68FA6893
:100740005A60FB689A683B689A60FB689B683A68E5
:100750005A60FB683A689A603B687A681A617B68FD
:100760001B685A1C7B681A6000BF1437BD4680BCEA
:10077000704780B485B000AF78607B681B69FB6010
:100780007B685B687A6892689A607B689B687A6825
:1007900052685A60FB685B687A689A4203D17B684A
:1007A0009A68FB685A607B6800221A61FB681B68C4
:1007B0005A1EFB681A60FB681B6818461437BD4652
:1007C00080BC704780B586B000AF00237B614F4B83
:1007D0001B68002B40F08F804D4B1B6801333B6141
:1007E0004B4A3B6913603B69002B21D1494B1B6885
:1007F0001B68002B0BD04FF0500383F31188BFF31D
:100800006F8FBFF34F8F3B6000BF00BFFDE7414BD1
:100810001B68FB60404B1B683E4A13603E4AFB6806
:1008200013603E4B1B6801333C4A136000F0E0F854
:100830003B4B1B683A699A4248D3364B1B681B688E
:10084000002B04D1364B4FF0FF321A603EE0314BA3
:100850001B68DB68DB68BB60BB685B687B603A6910
:100860007B689A4203D22E4A7B6813602EE0BB68F5
:1008700004331846FFF77DFFBB689B6A002B04D04A
:10088000BB6818331846FFF774FFBB68DB6A0122A8
:100890009A40244B1B681343224A1360BB68DA6AF0
:1008A00013469B0013449B001F4A1A44BB68043341
:1008B00019461046FFF73AFFBB68DA6A1B4B1B6804
:1008C000DB6A9A42B9D301237B61B6E7174B1B68F9
:1008D000DA6A154913469B0013449B000B441B68BE
:1008E000012B01D901237B61114B1B68002B07D021
:1008F00001237B6104E00F4B1B6801330D4A136039
:100900007B6918461837BD4680BD00BFDC06002055
:10091000C4060020BC060020C0060020D40600202B
:10092000D8060020C80600205806002054060020E3
:10093000D0060020CC06002080B487B000AF274B43
:100940001B68002B03D0264B01221A6040E0244B89
:1009500000221A60234B1B68FB60FB68B3FA83F329
:10096000FB72FB7AC3F11F037B611F497A6913464F
:100970009B0013449B000B441B68002B0BD14FF0D2
:10098000500383F31188BFF36F8FBFF34F8F7B60EA
:1009900000BF00BFFDE77A6913469B0013449B002C
:1009A000114A13443B613B695B685A683B695A6072
:1009B0003B695A683B6908339A4204D13B695B68DA
:1009C0005A683B695A603B695B68DB68074A136099
:1009D00000BF1C37BD4680BC704700BFDC0600204E
:1009E000D0060020C806002058060020540600202B
:1009F00080B483B000AF0C4B1B681B68002B04D184
:100A00000A4B4FF0FF321A6008E0074B1B68DB68A7
:100A1000DB687B607B685B68044A136000BF0C374F
:100A2000BD4680BC704700BFBC060020D806002031
:100A300080B487B000AFF860B9607A60FB68002BC3
:100A400005D0BB68002B02D07B68002B01D10023AE
:100A500033E0BB6800221A607B6800221A60FB68E2
:100A60005B6823F003037B617B690F2B01D80023B4
:100A700023E0FB681B683B613B6903F00303002B29
:100A80000FD03B6903F00303C3F104033A69134435
:100A90003B61FB681B683A69D31A1A467B699B1A4B
:100AA0007B617B690F2B07D9BB683A691A607B6849
:100AB0007A691A60012300E0002318461C37BD46FE
:100AC00080BC704780B58AB000AFF860B9607A60CA
:100AD000FB68002B01D0FB6800E0634B9B68002B98
:100AE00005D1BB68002B02D07B68002B01D100230D
:100AF000B6E000237B6100233B6100237B621AE0A8
:100B00007A693B691A447B6ADB00B9680B441B684D
:100B10009A4201D90023A3E07B6ADB00BA68134440
:100B20001B687B617B6ADB00BA6813445B683B61CE
:100B30007B6A01337B627A6A7B689A42E0D3002346
:100B40003B6281E007F1100207F114031946B8680F
:100B5000FFF76EFF0346002B6FD0FB68002B01D020
:100B6000FB6800E0404B9B68002B0FD1FB68002B1B
:100B700001D0FB6800E03C4B7A691A60FB68002BEF
:100B800001D0FB6800E0384B00225A60FB68002B64
:100B900001D0FB6800E0344B9B68FB6179693B69DD
:100BA000A3F10802FB68002B01D0FB6800E02E4B8C
:100BB0000A449A60FB68002B01D0FB6800E02A4BD6
:100BC0009B6800221A60FB68002B01D0FB6800E0E4
:100BD000254B9B6800225A607B69BB61FB68002B38
:100BE00001D0FB6800E0204B9A68BB691A603B6942
:100BF000A3F10802BB695A60FB69002B02D0FB69B4
:100C0000BA691A60FB68002B01D0FB6800E0164B44
:100C1000D968BB695A68FB68002B01D0FB6800E00B
:100C2000114B0A44DA60FB68002B01D0FB6800E03E
:100C30000D4B1A6901321A6100E000BF3B6A0133B3
:100C40003B62BB680833BB603A6A7B689A42FFF438
:100C500079AFFB68002B01D0FB6800E0024B1B69F9
:100C600018462837BD4680BDE006002080B500AF9D
:100C7000104800F0BFFA104B1B680F4A5268002161
:100C8000184600F09FFB01220B490020FFF71AFFD6
:100C90000346002B09D1094B1B68DB687222012136
:100CA000074800F037FA00BFFDE7064800F0A2FA57
:100CB00000BF80BD9C2A000804000020180000200E
:100CC000B42A0008282B000880B500AFFFF7CEFF3C
:100CD00000F06EF840F20360FFF7A8FC0423032243
:100CE00010210C48FFF7C8FB04210A48FFF776FCE7
:100CF00004210848FFF763FC4FF47A7000F074F8A1
:100D000004210448FFF76AFC4FF47A7000F06CF895
:100D100000BFEDE7000C014080B483B000AF034694
:100D20003960FB7197F90730002B0BDA3B68DAB2B8
:100D30000C49FB7903F00F03043B1201D2B20B44C0
:100D40001A7609E03B68DAB2074997F907301201D1
:100D5000D2B20B4483F8002300BF0C37BD4680BCE1
:100D6000704700BF00ED00E000E100E080B582B018
:100D700000AF78607B68013BB3F1807F01D3012332
:100D80000FE00A4A7B68013B53600F214FF0FF30B0
:100D9000FFF7C2FF054B00229A60044B07221A603E
:100DA000002318460837BD4680BD00BF10E000E0B4
:100DB00080B500AF0A4B1B680A4AA2FB03239B09BC
:100DC0001846FFF7D3FF0346002B01D000BFFDE715
:100DD00000214FF0FF30FFF79FFF00BF80BD00BF35
:100DE00000000020D34D621080B483B000AF786063
:100DF000064A7B68136000BF044B1B68002BFBD1C5
:100E000000BF00BF0C37BD4680BC7047F406002011
:100E1000002103E00B4B5B58435004310A480B4B55
:100E200042189A42F6D30A4A02E0002313600432C1
:100E3000084B9A42F9D3FFF72DFA00F065FBFFF754
:100E400043FF7047642B0008000000203806002094
:100E500038060020100A0020FEE70000024A03497D
:100E6000034800F0C9B800BF0C000020191E00089C
:100E7000200000200C4B416810B59942044601D077
:100E800000F0CAFFA168094B994202D0204600F049
:100E9000C3FFE168064B994204D02046BDE81040EC
:100EA00000F0BABF10BD00BFF806002060070020A8
:100EB000C80700202DE9F84300250423304C314AAF
:100EC0003149DFF8C890DFF8C880324F324E1160E8
:100ED00004F15C0029460822C4E90335C4E9005541
:100EE000C4E90555A560656600F06CFA04F1580088
:100EF000C4E90749C4E90987E66200F02DFB274BE6
:100F00002946082204F1C4006367C4E91A55C4E9FC
:100F10001E552567C4F8CC50C4F8805000F052FA32
:100F200004F1680304F1C000C4F88430C4E92298D5
:100F3000C4E9247600F010FB194B294604F596709D
:100F40000822C4F8DC30C4E93455C4E93855C4F883
:100F5000D850C4F83451C4F8E85000F033FA04F122
:100F6000D003C4E93D87C4F8F09004F59470C4F848
:100F7000FC60C4F8EC30BDE8F84300F0EDBA00BF07
:100F8000F8060020300800205D0E00080512000859
:100F900029120008691200088D12000809000100DA
:100FA0001200020010B504460A4800F0D9FA636B3B
:100FB00023B9094B094A1B68626323B1BDE810409D
:100FC000044800F0CFBAFFF775FFBDE810400148B4
:100FD00000F0C8BA4008002030080020750E000854
:100FE000014800F0BDBA00BF40080020014800F0F1
:100FF000B9BA00BF400800202DE9F8434FF00009BE
:1010000080460F461646D6E90154013D10D4A38907
:10101000012B08D9B4F90E30013304D021464046E3
:10102000B84749EA0009013D6B1C04F16804EED1A0
:101030003668002EE7D14846BDE8F8832DE9F04137
:1010400017461D46012307FB05F886B001AA064690
:101050000C9C019103920493CDF80880CDF8148084
:1010600010B1436B002B4CD0636EB4F90C20D80741
:1010700007D5910409D59B040DD5002006B0BDE825
:10108000F081900530D591041DD442F4005223F430
:101090000053A28163663046214603AA00F0D8FFC0
:1010A000636E03F00103B8B12BB9A3899B0502D489
:1010B000A06D00F057FA059BA8EB0308B8FBF7F00A
:1010C00006B0BDE8F0819804E5D5A3899905D4D48C
:1010D000A06D00F047FAD0E713B9A3899A0513D59C
:1010E000284606B0BDE8F081A06D00F039FAB4F9E9
:1010F0000C20636E9104C8D59A04CCD5D807BCD413
:10110000E3E7FFF74FFFAFE7A06D00F02BFA2846AB
:10111000E7E700BF30B594468E4605461C46054BB2
:1011200083B018682946724663460094FFF786FF2D
:1011300003B030BD1800002030B5054689B0084620
:101140000C4600F011FA01230222294907936B6B28
:101150000691029204A9421C04940191AC68059086
:101160000392002B40D0636EB4F90C20D8071AD537
:10117000910421D442F4005223F40053A281636607
:101180002846214601AA00F063FF002814BF4FF053
:10119000FF350A25636EDA0702D4A3899B0510D5B3
:1011A000284609B030BD900511D59104E2D59B04C5
:1011B000E6D54FF0FF35F0E79B04E1D54FF0FF3562
:1011C000EEE7A06D00F0CEF9284609B030BDA06D65
:1011D00000F0C6F9B4F90C20636E9004CAD59904E6
:1011E000CED54FF0FF35D6E72846FFF7DBFEBAE74E
:1011F0004C2B0008024B01461868FFF79DBF00BF4B
:101200001800002010B50C46B1F90E1000F050F98E
:10121000002803DB236D0344236510BDA38923F459
:101220008053A38110BD00BF2DE9F0410C46B1F9F8
:101230000C101F46CB05054616460BD421F48051F1
:10124000A1813B4632462846B4F90E10BDE8F04174
:1012500000F044B9B4F90E100223002200F012F994
:10126000B4F90C10EAE700BF10B50C46B1F90E1046
:1012700000F008F9B4F90C30421C0EBF23F480537F
:1012800043F480532065A38110BD00BFB1F90E1057
:1012900000F0E6B88842F0B514D98B18834211D912
:1012A000032A00EB020166D802F1FF3C4AB16FEA63
:1012B0000C0C0A469C4413F8011D634502F8011DFD
:1012C000F9D1F0BD032A0FD8034602F1FF3C002AF2
:1012D000F7D00CF1010C013B8C4411F8012B614556
:1012E00003F8012FF9D1F0BD41EA00039B073ED17D
:1012F0000F2A64D901F11004A446A2F11003203191
:1013000023F00F03194400F1100E5CF8105C0CF18F
:10131000100C4EF8105C5CF81C5C0EF1100E4EF8D0
:101320001C5C5CF8185C4EF8185C5CF8145C8C452E
:101330004EF8145CE9D1E11812F00C0F034402F0EE
:101340000F0E03F1100338D08C462EF00305043D38
:101350001A1F5E195CF8044B42F8044FB242F9D1EF
:101360000431043329442B440EF00302ADE7034655
:1013700002F1FF3CADE741EA0304A4071F4602D097
:1013800002F1FF3C93E78C46A2F1040E2EF0030617
:101390008E1B4FEA9E0E644653F8045DB4424CF82F
:1013A000045DF8D1CEEB8E7301EB830107EB83076D
:1013B0003B1F043902F0030276E7724685E70346D5
:1013C0009646C1E7830730B546D08446841805E0C9
:1013D000634603F8011B9D0703D09C46A445F7D143
:1013E00030BD013A0244A2EB0C02032A29D9CCB247
:1013F00004EB04240F2A04EB04442FD9A2F1100CAF
:101400002CF00F0C03F11005AC44C3E90044C3E910
:10141000024410336345F8D112F00C0F02F00F0EA6
:1014200018D01A462EF0030C9C44AEF1040542F885
:10143000044B6245FBD125F0030404330EF0030294
:101440002344002ACCD0C9B21A4403F8011B9342AA
:10145000FBD130BD7246F4E70346C6E79646E0E7A7
:10146000002238B5064D044608462A6001F0CCFA41
:10147000431C00D038BD2B68002BFBD0236038BD47
:101480003408002038B50C46114600228446074D2A
:1014900020462A601A46644601F0CEFA431C00D06A
:1014A00038BD2B68002BFBD0236038BD34080020EA
:1014B00038B50C46114600228446074D20462A6066
:1014C0001A46644601F0C0FA431C00D038BD2B68B0
:1014D000002BFBD0236038BD3408002038B50C4603
:1014E000114600228446074D20462A601A4664466B
:1014F00001F0C0FA431C00D038BD2B68002BFBD094
:10150000236038BD3408002070B50F4B0F4DAB423F
:10151000A3EB050607D00024B61055F8043B0134B0
:101520009847A642F9D801F0ADFA094D094B5E1B68
:10153000AB424FEAA60606D0002455F8043B01341E
:101540009847A642F9D870BD582B0008582B0008C0
:10155000582B0008602B0008704700BF704700BF81
:10156000704700BF704700BF20F0030110F0030078
:10157000C0F1000051F8043B00F1040C4FEACC0C20
:101580006FF000021CBF22FA0CF213434FF0010C63
:101590004CEA0C2C4CEA0C4CA3EB0C0222EA0302A2
:1015A00012EACC1204BF51F8043B0430F4D0C2F16B
:1015B000000102EA0102B2FA82F2C2F11F0200EB5C
:1015C000D2007047024B13B1024800F005B87047D3
:1015D000000000004D240008002301461A4618466A
:1015E00000F096BF2DE9F84306460820894600F032
:1015F00041FF0546DFF89880304600F001FCD8F83E
:1016000008305F6827F00307A7F11104A4EB090471
:101610002C44B4FBF5F4013C05FB04F4A54208DCC2
:101620000021304600F000FFD8F808303B449842D3
:1016300005D0304600F0EAFB0020BDE8F8833046D4
:10164000614200F0F1FE01300FD0124AD8F80830A4
:101650003F1B47F001075F60136830461B1B136098
:1016600000F0D4FB0120BDE8F8830021304600F0F3
:10167000DBFED8F80820831A0F2BDADD43F00103D4
:101680005360054B03491B68C01A0860D1E700BFCF
:1016900030020020480800202402002000295AD0EF
:1016A000F8B50C46074600F0ABFB54F804CC724D7D
:1016B000A4F108022CF00103D118A8684E688842F2
:1016C00026F003060CF0010E7CD04E6088194068AD
:1016D00000F00100BEF1000F2ED154F8084C05F1C6
:1016E000080C121B23449468644560D0D2F80CE0C7
:1016F000C4F80CE0CEF8084000287DD043F001008B
:1017000050600B60B3F5007F2ED25809D908012331
:1017100083406868013103436B6055F8310005EB85
:10172000C103083BC2E9020345F83120C2603846D4
:10173000BDE8F84000F06ABB70B9334405F1080C0D
:10174000886843F0010460456ED0C968C160886054
:101750005460D350D6E770474CF00101B3F5007FD9
:1017600044F8041CD350D0D3B3F5206F4FEA532173
:1017700044D2990901F1390001F13804C100681817
:1017800069580838884203D155E08968884204D0F6
:101790004C6824F003049C42F7D8C868C2E90210E0
:1017A00082603846BDE8F840CA6000F02FBB80BBBD
:1017B0001E44D1E90213CB60996046F001035360E7
:1017C0009651B4E71E44BEF1000F07D154F8083C0F
:1017D000D21A1E44D2E90213CB60996046F001038D
:1017E0005360264BAA601B68B342A0D8244B3846EE
:1017F0001968FFF7F7FE9AE73344A1E714290DD9DA
:1018000054291FD8190B01F16F0001F16E04C100BA
:10181000B5E743F0010050600B6088E701F15C0020
:1018200001F15B04C100AAE7C5E90422C2E902CCC8
:101830005460D3507BE70123A410A3406C6823437A
:101840006B60ABE7B1F5AA7F06D8D90B01F1780040
:1018500001F17704C10092E740F25450814206D86A
:10186000990C01F17D0001F17C04C10087E74FF480
:101870007E717E2483E700BF300200202802002012
:10188000780800202DE9F04F01F10B05162D0646D2
:1018900083B024D8102900F2AE8000F0B1FA1025F0
:1018A00018234FF0020CC04F3B445C68A3F10802C0
:1018B000944200F05F8130466368E268A16823F0DB
:1018C0000303CA60234491605A68083442F001025D
:1018D0005A6000F09BFA204603B0BDE8F08F35F067
:1018E000070500F18880A94200F2858000F088FA9F
:1018F000B5F5FC7FC0F0B1816B0A00F08380042B4A
:1019000000F26E81AB0903F1390C03F1380E4FEA96
:10191000CC00A54F384444680838A04207D10DE0F8
:10192000002AE16880F22081884207D00C46636873
:1019300023F003035A1B0F2AF2DDF446DFF86C8212
:101940003C69444500F0FD80636823F00309A9EB7E
:1019500005030F2B00F38681002BC7E9048880F272
:101960007081B9F5007FD7F804E080F00A81012387
:101970004FEAD9014FEA5919194403FA09F357F804
:1019800031204EEA030E07EBC103083BA260E3607F
:10199000C7F804E047F83140D46001204FEAAC03B7
:1019A0009840704535D810EA0E0F07D12CF0030C83
:1019B000400010EA0E0F0CF1040CF9D007EBCC0A32
:1019C000D646E146DEF80C300BE059681C4621F0A3
:1019D00003014A1B0F2ADB6800F30F81002A80F203
:1019E00023819E45F1D109F1010919F0030F0EF190
:1019F000080EE7D160E10C2333600024204603B0D9
:101A0000BDE8F08F4FF400704FF0400C4FF03F0EE8
:101A10007FE7BC68636823F00309A94504D3A9EBF9
:101A200005030F2B00F39080614B08201B6803F126
:101A3000100804EB0903009300F01CFD5D4A834687
:101A40001368A844013305D008F1FF3880444342AD
:101A500003EA08084146304600F0E6FCB0F1FF3FDB
:101A60008246544A00F0198104EB0903834200F2D4
:101A70001281514B0BF1FF3C18684044186000F094
:101A800068811168013100F0708104EB0902AAEB52
:101A9000020202441A601AF00702CDE9002300F0A6
:101AA0002A81C2F108029244D04408EA0C015A4447
:101AB000521A02EA0C0B5946304600F0B5FC421CA3
:101AC000019B00F06F81A0EB0A0000EB0B08186887
:101AD00048F001025844BC42C7F808A01860CAF890
:101AE000042017D0B9F10F0F40F242814FF0050CDE
:101AF0006168A9F10C0222F0070201F00101114313
:101B000061600F2A04EB0201C1E901CC00F25281AD
:101B1000DAF804205446294B1968814238BF18600E
:101B2000274B1968814238BF186022F00308A84586
:101B3000A8EB050301D30F2B06DC304600F066F955
:101B40005BE7D7F804E028E7621943F0010345F0AA
:101B5000010565603046BA600834536000F056F9FC
:101B6000204603B0BDE8F08FA2683046D160234420
:101B70008A60A9E6DC68A3427FF49DAE0CF1020CFA
:101B8000DCE6B9F5206F4FEA59227DD3142A00F222
:101B9000C58002F15C03DB005B32F918FB580839A1
:101BA000994212D19EE000BF30020020380200208E
:101BB0007808002024020020480800207408002033
:101BC000700800209B68994204D05A6822F00302F2
:101BD0004A45F7D8D968C4E902318C60DC60DCE69C
:101BE000142B5DD9542B00F2A2802B0B03F16F0C48
:101BF00003F16E0E4FEACC008BE6D4F808C03046F5
:101C0000661945F001056560CCF80C30C3F808C0D2
:101C100042F00103C7E90466C6E9028873606250B6
:101C200000F0F4F80834E9E621444A68304642F00E
:101C300001024A6054F8082FD3609A6000F0E6F879
:101C4000DCE6A144D9F80430304643F00103C9F87A
:101C5000043000F0DBF80834D0E64FEAD50C05F18B
:101C6000080320E6621943F0010145F001056560B3
:101C70003046C7E90422C2E90288516044F80930BD
:101C800000F0C4F80834B9E64FEA991202F13903BA
:101C9000DB00383281E7BC4254D0BC68626844E75C
:101CA00003F15C0C03F15B0E4FEACC0031E65AF80D
:101CB0000839534540F09F801CF0030F0CF1FF3CA6
:101CC000F5D17B6823EA00037B60400098423FF631
:101CD000A0AE18B99DE6400009F104091842FAD0F7
:101CE000CC466BE60120921000FA02F24EEA020E98
:101CF000C7F804E06FE70AEB080202EA0C02ABEB5C
:101D0000020202EA0C0B5946304600F08DFB431CE0
:101D1000019B7FF4D8AEDDF800B0D8E6542A2BD86A
:101D20004FEA193202F16F03DB006E3235E7B3F58B
:101D3000AA7F2BD8EB0B03F1780C03F1770E4FEA57
:101D4000CC00E6E52D4B0BF1FF3C186840441860D1
:101D500097E61AEA0C0F7FF494AED7F808A0C844AF
:101D600048F00102CAF80420D4E6C2F800A092E6C6
:101D70000123CAF80430E0E6B2F5AA7F25D84FEA7D
:101D8000D93202F17803DB00773206E740F2545291
:101D9000934225D8AB0C03F17D0C03F17C0E4FEA86
:101DA000CC00B6E5009A4FF0000B083A9044A8EB3F
:101DB0000A088CE6304604F108010093FFF76EFC38
:101DC000009BD7F808A01868A2E640F254539A4244
:101DD0000DD84FEA994202F17D03DB007C32DCE64C
:101DE0004FF47E704FF07F0C4FF07E0E91E54FF474
:101DF0007E737E22D1E67B6867E700BF480800203B
:101E00000148FFF7ADBB00BF380800200148FFF7CD
:101E1000A9BB00BF3808002070B500293FD0064696
:101E20000C4610B1436B002B3CD0636EB4F90C2010
:101E3000DD0732D4900538D52146304600F04CF805
:101E4000E36A054633B13046E16998470028B8BFD8
:101E50004FF0FF35A3891A0639D4216B41B104F143
:101E60004003994202D03046FFF718FC0023236359
:101E7000616C21B13046FFF711FC00236364FFF76A
:101E8000AFF80022636EA281DB071CD5A06DFFF7BF
:101E900065FBFFF7ABF8284670BD002ACCD10025C2
:101EA000284670BDFFF77EF8BFE7A06DFFF758FB2F
:101EB000B4F90C30002BBFD1636ED907EFD4A06DFD
:101EC000FFF750FBEBE7A06DFFF74CFBDEE730467A
:101ED0002169FFF7E3FBC0E7B1F90C20F8B515075E
:101EE0000C46074649D4496842F400630029A3819F
:101EF00060DDA66A002E3ED0002112F480523D68BB
:101F0000396063D101233846E169B0470246501C6D
:101F100069D0B4F90C30A66A590705D56368D21A9E
:101F2000236B0BB1E36BD21A00233846E169B0474B
:101F3000421CB4F90C304BD139681D2940D82E4AC7
:101F4000CA40D6073CD5002262602269D9042260CB
:101F500023F40062A28102D53B68002B41D0216BA3
:101F60003D6041B104F14003994202D03846FFF789
:101F700095FB002323630020F8BD0E69002EFAD0E4
:101F8000920718BF00230D6808BF4B690E60AD1B98
:101F90008B600CE02B463246D4F824C03846E16909
:101FA000E047B0F1000CA5EB0C05664406DD002D02
:101FB000F0DCE0E7E16B00299BDCDCE7B4F90C30F6
:101FC00043F040034FF0FF30A381F8BD226DA3E73B
:101FD000002262602269226023F40062DB04A28195
:101FE000BDD52065BBE73B68002B92D01D2B01D0EF
:101FF000162BE3D13D60BEE70100402038B5054611
:102000000C4608B1436B03B3B4F90C0088B1636E9E
:10201000DB0701D481050FD528462146FFF75CFF79
:10202000636E0546DA0702D4A3899B0508D52846C6
:1020300038BD0546284638BDA06DFFF791FAEBE79D
:10204000A06DFFF78FFA284638BDFEF7ABFFDBE740
:102050009368002B00F0AB802DE9F04FB1F90CC074
:1020600017461CF0080F80460C4683B024D00B693D
:1020700013B31CF002093E682AD04FF0000B5D46F6
:10208000DFF8A4A2002D00F0818055452B465A466A
:1020900028BF53464046E169D4F824C0E0470028F1
:1020A0007DDDBB6883441B1A2D1ABB60002BE9D170
:1020B000002003B0BDE8F08F2146404600F036F91D
:1020C000002871D1B4F90CC03E681CF00209D4D1CB
:1020D0001CF0010A6DD155462368002D52D01CF426
:1020E000007F1846D4F8089000F0A580A945CB469B
:1020F00000F2E0801CF4906F32D021696269A3EB9A
:10210000010902EB420202EBD27209F10103521003
:102110002B44934292BF93469B461A461CF4806F11
:1021200000F0E68011464046FFF7ACFB002800F0C7
:10213000F5804A4621690190FDF7EAFFA289019BDB
:1021400022F4906242F08002A28103EB0900236135
:10215000C4F814B0ABEB0903A946AB46A3602060FA
:1021600051465A46FFF796F8A2682368A2EB090287
:10217000A260B9685B44491B2360B960002997D00D
:10218000B4F90CC0D6E900A50836A6E7D6E900B533
:10219000083677E721464046FFF730FF60B3B4F9D1
:1021A0000C3043F04003A3814FF0FF3081E7002063
:1021B00070474D46BA4648464F465DB380B34A46DF
:1021C00020682169AA4228BF2A468842636904D947
:1021D000A16803EB010B5A457CDC93426DDC3A4667
:1021E0004046E169D4F824C0E047B0F1000BD6DDE9
:1021F000B9EB0B09CED00120DAF808305F44A3EB2D
:102200000B03A5EB0B05CAF80830002B3FF450AFC9
:10221000002DD3D1756833460836002DFAD01F68DB
:102220002A460A21384600F033F9002873D00130DD
:10223000A0EB0709C3E722699A4223D3D4F814C05C
:10224000AC451FD86FF00043AB4228BF2B4693FB31
:10225000FCF352460CFB03F34046E169D4F824C07A
:10226000E047B0F100099ADDBB68A5EB0905A3EBD7
:102270000903CA44BB60002B3FF41AAFB4F90CC089
:1022800023682AE7A94528BFA94618464A46514669
:10229000FFF700F8A2682368A2EB09024B44A26092
:1022A0002360002AE0D121464046FFF7A7FE002820
:1022B000DAD074E7A946AB4652E739460192FEF7F9
:1022C000E9FF019AA36893469B1AA360236813440D
:1022D00023608DE739465A46FEF7DCFF2368214626
:1022E0005B4440462360FFF789FE002880D056E714
:1022F000404600F04DF9034600287FF426AF4046E3
:102300002169FFF7CBF90C22B4F90C30C8F8002092
:1023100023F0800345E76A1C914651E70C22B4F98B
:102320000C30C8F800203CE700FCFF7F38B53D4B7F
:1023300005461B680C4613B15A6B002A5AD0B4F9F3
:102340000C3019070BD522699AB113F0010221D183
:102350009B0756BF6369A260A360002038BDDA0600
:1023600058D558071CD4226943F00803A381002ADA
:10237000EBD1990528D5180603F0800124D4D8079D
:1023800041D49D073CD5A2600029E6D043F040032C
:10239000A38144E000226369A2605B42A361DCE7A1
:1023A000216B51B104F14002914204D02846FFF75D
:1023B00075F9B4F90C30002222630021226923F060
:1023C0002403C4E90021CFE72146284600F088FA1B
:1023D000B4F90C30226913F001010FD000206169BB
:1023E000A0604942A161002AB7D103F08001002911
:1023F000B3D0CBE71846FEF7D5FDA0E7980700D489
:102400006169A160EFE76069A2604042A0610029B4
:10241000A3D0BBE7092243F040032A60A3814FF019
:10242000FF3038BD18000020002238B5064D0446A4
:1024300008462A6000F010FB431C00D038BD2B6812
:10244000002BFBD0236038BD3408002038B5074D81
:10245000074C2C1BA41005D0013C55F8043D9847AF
:10246000002CF9D1BDE8384000F012BB642B000805
:10247000602B0008082802D14FF48050704708B53F
:1024800000F0BCFA162203464FF0FF301A6008BD78
:1024900030B586468007CCB215D0F4460EEB020567
:1024A00007E0634613F8011BA14206D0990705D047
:1024B0009C4665456046F4D1002030BD013A724427
:1024C0009E46A2EB0C02032A0CD8002AF4D07346D5
:1024D000724401E09A42EFD0184613F8011BA14262
:1024E000F8D130BD714604EB042505EB05458E4659
:1024F00051F8043B6B40A3F1013020EA030313F0D1
:10250000803FE4D1043A032AF1D88E46DDE700BFCC
:102510002DE9F8431B4D0646286898460F4691461C
:10252000FFF71EF8184B1C681CB3286865681F2D40
:1025300022DC4EB96B1C0235636044F82570FFF74E
:1025400011F80020BDE8F883012304EB8501C1F8F0
:102550008890D4F88821AB401A43022EC4F8882111
:10256000C1F80881E6D1D4F88C211A43C4F88C2133
:10257000E0E7064C1C60D8E7FEF7F4FF4FF0FF30B1
:10258000E0E700BF20020020440800207C08002073
:102590002DE9F84F1646002900F098800C46804639
:1025A00006F10B05FFF72CFC54F8041C162DA4F1C2
:1025B000080921F0030758D81025AE4258D8AF4279
:1025C00062DAC04B09EB070C9A68DCF8040062453C
:1025D00000F0928020F0010363445B68DB076AD45B
:1025E00020F003003B189D4249DDCB0712D454F87C
:1025F000083CA9EB030BDBF8043023F00302104482
:1026000000EB070A554540F3F88007EB020A5545F1
:1026100040F3CE8031464046FFF734F906460028A5
:1026200000F0238154F8043CA0F1080223F00103D8
:102630004B44934200F0B6803A1F242A00F2D9801E
:10264000132A00F2A48003462246116819605168DB
:10265000596092689A6021464046FFF71FF840464D
:10266000FFF7D4FB3046BDE8F88F35F00705A4D559
:102670000C23C8F8003000263046BDE8F88F1F460E
:10268000DCE90223D3609A60D9F804307A1B0F2A60
:1026900003F0010309EB07001DD83B43C9F80430E0
:1026A000436843F0010343604046FFF7AFFB264613
:1026B0003046BDE8F88FC907ACD454F8083CA9EB04
:1026C000030BDBF8043023F003029EE71146BDE85C
:1026D000F84FFFF7D7B82B4309EB050142F0010291
:1026E000C9F804304A604368083143F0010343608D
:1026F0004046FEF7D3FFD7E720F00300C21905F1EB
:10270000100C624580F29280CA0783D454F8082CDA
:10271000A9EB020BDBF8042022F00302104400EBCB
:10272000070AD4453FF771AF5E46DBF80C1056F848
:10273000080F3A1F242AC160886000F2B080132A73
:1027400040F2AB8021681B2ACBF808106168CBF8F7
:102750000C1000F2AA8008340BF1100221681160FD
:1027600061685160A1689160AAEB05020BEB05015D
:1027700042F0010299604A60DBF80430404603F001
:1027800001032B43CBF80430FFF740FB90E72368AD
:102790001B2A0360636843603DD804F1080200F11E
:1027A000080352E750F8043C23F003031F446BE78F
:1027B0005E463A1FDBF80C3056F8081F242ACB601F
:1027C000996023D8132A1FD923681B2ACBF8083015
:1027D0006368CBF80C303CD808340BF11003226846
:1027E0001A6062685A60A2689A6034465746D946B1
:1027F0004AE72146FEF74EFD2DE7DCE902135E466F
:10280000CB603A1F9960D5E73346E8E7214630466A
:10281000FEF740FDE9E7A368242A8360E368C3600C
:1028200027D004F1100200F110030EE7521B09EB50
:10283000050142F0010299604A6054F8043C4046A8
:1028400003F001032B4344F8043CFFF7DFFA26466C
:102850002EE7A368242ACBF81030E368CBF81430B5
:1028600010D010340BF11803B9E74046FFF7CEFA49
:1028700001E7236904F1180203616369436100F110
:102880001803E2E623691834CBF8183054F8043CF6
:10289000CBF81C300BF12003A1E732465EE721465E
:1028A0003046FEF7F7FC074B5EE7A168242ACBF819
:1028B0001010E168CBF8141006D010340BF1180298
:1028C0004CE700BF3002002022691834CBF81820F2
:1028D00054F8042CCBF81C200BF120023EE700BF7B
:1028E00070B5B1F90C300C46990796B007D50122A6
:1028F00004F14303C4E90432236016B070BDB4F997
:102900000E10054600292BDB6A4600F051F800281E
:1029100024DB4FF480612846019EFEF7B3FFB4F933
:102920000C30A0B34FF4806206F4704643F080038D
:10293000B6F5005FA38120602061626135D1284631
:10294000B4F90E1000F048F8B4F90C3068B323F075
:1029500003034FF4006243F0010314E0B4F90C30B8
:1029600013F0800F0CBF4FF4806640262846314696
:10297000FEF788FFB4F90C3048B10022C4E9040620
:1029800043F0800320601343A38116B070BD9A0505
:10299000B3D4012123F0030304F1430243F0020303
:1029A000C4E90421A3812260A7E74FF40062EAE7AB
:1029B00070B50026074D0446084611462E6000F00B
:1029C0002BF8431C00D070BD2B68002BFBD023607C
:1029D00070BD00BF34080020002238B5064D044603
:1029E00008462A6000F020F8431C00D038BD2B6850
:1029F000002BFBD0236038BD34080020014B186841
:102A0000704700BF180000205822024B4FF0FF30E3
:102A10001A607047340800205822024B4FF0FF30F4
:102A20001A607047340800205822024B00201A60B8
:102A3000704700BF340800205822024B4FF0FF308F
:102A40001A607047340800205822024B4FF0FF30C4
:102A50001A60704734080020044A05491368002BA7
:102A600008BF0B4618441060184670470C0A002037
:102A7000981D00205822024B4FF0FF301A6070471B
:102A800034080020F8B500BFF8BC08BC9E4670476B
:0C2A9000F8B500BFF8BC08BC9E467047BB
:102A9C00496E697469616C697A696E67204C774D0F
:102AAC00454D2E2E2E0D000043616E6E6F74206905
:102ABC006E697469616C697A65204C774D454D2E51
:102ACC00204D616B65207375726520796F7572206E
:102ADC00726567696F6E7320617265206E6F74200A
:102AEC006F7665726C617070696E67206561636882
:102AFC00206F7468657220616E6420617265206954
:102B0C006E20617363656E64696E67206D656D6FB1
:102B1C007279206F726465720D0A00004C774D4516
:102B2C004D20696E697469616C697A656420616EA7
:102B3C006420726561647920746F207573650D0073
:042B4C000A0000007B
:082B5000C0D5FF7F0100000069
:082B5800C51500086502000824
:042B60003D0200082A
:102B640000F36F06100A0020881300000000000024
:102B740003000000F80600202000002000000000F0
:102B840000000000F806002060070020C8070020AD
:102B94000000000000000000000000000000000031
:102BA4000000000000000000000000000000000021
:102BB4000000000000000000000000000000000011
:102BC4000000000000000000000000000000000001
:102BD40000000000000000000000000000000000F1
:102BE40000000000000000000000000000000000E1
:102BF40000000000000000000000000000000000D1
:102C040000000000000000000000000000000000C0
:102C140000000000000000000100000000000000AF
:102C24000E33CDAB34126DE6ECDE05000B00000074
:102C34000000000000000000000000000000000090
:102C44000000000000000000000000000000000080
:102C54000000000000000000000000000000000070
:102C64000000000000000000000000000000000060
:102C74000000000000000000000000000000000050
:102C84000000000000000000000000000000000040
:102C94000000000000000000000000000000000030
:102CA4000000000000000000000000000000000020
:102CB4000000000000000000000000000000000010
:102CC4000000000000000000000000000000000000
:102CD40000000000000000000000000000000000F0
:102CE40000000000000000000000000000000000E0
:102CF40000000000000000000000000000000000D0
:102D040000000000000000000000000000000000BF
:102D140000000000000000000000000000000000AF
:102D2400000000000000000000000000000000009F
:102D3400000000000000000000000000000000008F
:102D4400000000000000000000000000000000007F
:102D5400000000000000000000000000000000006F
:102D6400000000000000000000000000000000005F
:102D7400000000000000000000000000000000004F
:102D84003C080020FFFFFFFF0000020000000000DD
:102D9400000000000000000030020020300200208B
:102DA40038020020380200204002002040020020A7
:102DB4004802002048020020500200205002002057
:102DC4005802002058020020600200206002002007
:102DD40068020020680200207002002070020020B7
:102DE4007802002078020020800200208002002067
:102DF4008802002088020020900200209002002017
:102E04009802002098020020A0020020A0020020C6
:102E1400A8020020A8020020B0020020B002002076
:102E2400B8020020B8020020C0020020C002002026
:102E3400C8020020C8020020D0020020D0020020D6
:102E4400D8020020D8020020E0020020E002002086
:102E5400E8020020E8020020F0020020F002002036
:102E6400F8020020F80200200003002000030020E4
:102E74000803002008030020100300201003002092
:102E84001803002018030020200300202003002042
:102E940028030020280300203003002030030020F2
:102EA40038030020380300204003002040030020A2
:102EB4004803002048030020500300205003002052
:102EC4005803002058030020600300206003002002
:102ED40068030020680300207003002070030020B2
:102EE4007803002078030020800300208003002062
:102EF4008803002088030020900300209003002012
:102F04009803002098030020A0030020A0030020C1
:102F1400A8030020A8030020B0030020B003002071
:102F2400B8030020B8030020C0030020C003002021
:102F3400C8030020C8030020D0030020D0030020D1
:102F4400D8030020D8030020E0030020E003002081
:102F5400E8030020E8030020F0030020F003002031
:102F6400F8030020F80300200004002000040020DF
:102F7400080400200804002010040020100400208D
:102F8400180400201804002020040020200400203D
:102F940028040020280400203004002030040020ED
:102FA400380400203804002040040020400400209D
:102FB400480400204804002050040020500400204D
:102FC40058040020580400206004002060040020FD
:102FD40068040020680400207004002070040020AD
:102FE400780400207804002080040020800400205D
:102FF400880400208804002090040020900400200D
:103004009804002098040020A0040020A0040020BC
:10301400A8040020A8040020B0040020B00400206C
:10302400B8040020B8040020C0040020C00400201C
:10303400C8040020C8040020D0040020D0040020CC
:10304400D8040020D8040020E0040020E00400207C
:10305400E8040020E8040020F0040020F00400202C
:10306400F8040020F80400200005002000050020DA
:103074000805002008050020100500201005002088
:103084001805002018050020200500202005002038
:1030940028050020280500203005002030050020E8
:1030A4003805002038050020400500204005002098
:1030B4004805002048050020500500205005002048
:1030C40058050020580500206005002060050020F8
:1030D40068050020680500207005002070050020A8
:1030E4007805002078050020800500208005002058
:1030F4008805002088050020900500209005002008
:103104009805002098050020A0050020A0050020B7
:10311400A8050020A8050020B0050020B005002067
:10312400B8050020B8050020C0050020C005002017
:10313400C8050020C8050020D0050020D0050020C7
:10314400D8050020D8050020E0050020E005002077
:10315400E8050020E8050020F0050020F005002027
:10316400F8050020F80500200006002000060020D5
:103174000806002008060020100600201006002083
:103184001806002018060020200600202006002033
:08319400280600202806002097
:10319C000000000000000000000000000000000023
:1031AC000000000000000000000000000000000013
:1031BC000000000000000000000000000000000003
:0400000508000E11D0
:00000001FF
