:020000040800F2
:1000000000500020910A0008D90A0008D90A000807
:10001000D90A0008D90A0008D90A0008000000001F
:10002000000000000000000000000000D1060008F1
:10003000D90A00080000000001070008490700086D
:10004000D90A0008D90A0008D90A0008D90A000804
:10005000D90A0008D90A0008D90A0008D90A0008F4
:10006000D90A0008D90A0008D90A0008D90A0008E4
:10007000D90A0008D90A0008D90A0008D90A0008D4
:10008000D90A0008D90A0008D90A0008D90A0008C4
:10009000D90A0008D90A0008D90A0008D90A0008B4
:1000A000D90A0008D90A0008D90A0008D90A0008A4
:1000B000D90A0008D90A0008D90A0008D90A000894
:1000C000D90A0008D90A0008D90A0008D90A000884
:1000D000D90A0008D90A0008D90A0008D90A000874
:1000E000D90A0008D90A0008D90A0008000000004F
:1000F0000000000000000000000000000000000000
:04010000D90A000810
:100110000348044B834202D0034B03B11847704796
:100120000800002008000020000000000548064BE1
:100130001B1AD90F01EBA301491002D0034B03B1E5
:100140001847704708000020080000200000000049
:1001500010B5064C237843B9FFF7DAFF044B13B10F
:100160000448AFF300800123237010BD0800002075
:1001700000000000FC0B000808B5054B1BB1054949
:100180000548AFF30080BDE80840FFF7CFBF00BFD0
:10019000000000000C000020FC0B000880B500AF40
:1001A00000F07AF800BF80BD80B582B000AF364B5A
:1001B0001B68354A43F00103136000BF324B1B68D4
:1001C00003F00203002BF9D0304B1B682F4A43F099
:1001D0008003136000237B6002E07B6801337B6057
:1001E0007B684F2BF9D9294B1B68284A43F09003B1
:1001F000136000237B6002E07B6801337B607B68D7
:100200004F2BF9D9214B1B68204A23F003031360BD
:100210001D4B1B681C4A23F0847323F48033136046
:100220001A4B1A6819491A4B13400B60164B1B687E
:10023000154A23F0847323F480331360124B1B6838
:10024000114A23F480231360104B1B680F4A23F0DC
:100250000F6323F4702313600B4B1B680A4A23F0CF
:10026000847323F4803313600A4B4FF41F021A6027
:10027000FFF794FF00214FF0006000F049F900BF44
:100280000837BD4680BD00BF001002400410024088
:100290000C00FFE80810024080B483B000AF0023D8
:1002A0007B6000233B60374B1B68364A43F4803346
:1002B00013607B6801337B60324B1B6803F40033AF
:1002C0003B603B68002B04D17B684FF6FF72934282
:1002D000EFD12C4B1B6803F40033002B01D100BF7E
:1002E000FDE7294B284A1B681360274B264A1B68E9
:1002F0001360254B1B68244A43F480631360224B30
:100300001B68214A23F4403313601F4B1B681E4AAD
:1003100043F4403313601C4B1B681B4A23F00363F8
:1003200023F440231360184B1B68174A43F0026301
:1003300043F400231360134B1B68124A43F080738D
:10034000136000BF0F4B1B6803F00073002BF9D044
:100350000D4B1B680C4A23F0030313600A4B1B6808
:10036000094A43F00203136000BF074B1B6803F008
:100370000C03082BF9D100BF00BF0C37BD4680BC71
:10038000704700BF001002400410024080B489B0E2
:1003900000AFF860B9607A603B600023BB61002366
:1003A0007B61BB6803F00F03BB61BB6803F0100304
:1003B000002B03D0BA697B681343BB610023FB8326
:1003C00039E0FB8B01229A403B681340002B2FD071
:1003D000FB681B687B61FB8B9B000F2202FA03F317
:1003E000DB437A6913407B61FB8B9B00BA6902FA9D
:1003F00003F37A6913437B61BB68282B09D1FB8B1C
:1004000001229A40FB68143319463B6813400B6085
:100410000BE0BB68482B08D1FB8B01229A40FB689C
:10042000103319463B6813400B60FB687A691A6009
:10043000FB8B0133FB83FB8B072BC2D90823FB8388
:100440003EE0FB8B01229A403B681340002B34D0E6
:10045000FB6804331B687B61FB8B083B9B000F220E
:1004600002FA03F3DB437A6913407B61FB8B083BA1
:100470009B00BA6902FA03F37A6913437B61BB6894
:10048000282B09D1FB8B01229A40FB6814331946B3
:100490003B6813400B600BE0BB68482B08D1FB8B1B
:1004A00001229A40FB68103319463B6813400B60E9
:1004B000FB6804331A467B691360FB8B0133FB83B3
:1004C000FB8B0F2BBDD900BF00BF2437BD4680BCBE
:1004D000704780B483B000AF786039607B681033B8
:1004E0001A463B68136000BF0C37BD4680BC70479E
:1004F00080B483B000AF786039607B6814331A46EB
:100500003B68136000BF0C37BD4680BC70470000DD
:1005100080B483B000AF786039603B6823F06043FB
:1005200023F07F0305497A6813438B60BFF34F8F35
:1005300000BF00BF0C37BD4680BC704700ED00E037
:1005400080B483B000AF0346FB80FB889B099BB25D
:1005500003F1804303F504331968FB8803F01F039C
:1005600001229A40FB889B099BB203F1804303F56B
:100570000433184641EA0203036000BF0C37BD464E
:1005800080BC704780B500AF00F06EF840F20360A9
:10059000FFF7D6FF0423032210210C48FFF7F6FED5
:1005A00004210A48FFF7A4FF04210848FFF791FF40
:1005B0004FF47A7000F074F804210448FFF798FFB4
:1005C0004FF47A7000F06CF800BFEDE7000C0140CA
:1005D00080B483B000AF03463960FB7197F90730F0
:1005E000002B0BDA3B68DAB20C49FB7903F00F03FE
:1005F000043B1201D2B20B441A7609E03B68DAB22E
:10060000074997F907301201D2B20B4483F800234F
:1006100000BF0C37BD4680BC704700BF00ED00E056
:1006200000E100E080B582B000AF78607B68013BFC
:10063000B3F1807F01D301230FE00A4A7B68013BBD
:1006400053600F214FF0FF30FFF7C2FF054B002230
:100650009A60044B07221A60002318460837BD46EB
:1006600080BD00BF10E000E080B500AF0A4B1B6802
:100670000A4AA2FB03239B091846FFF7D3FF034650
:10068000002B01D000BFFDE700214FF0FF30FFF746
:100690009FFF00BF80BD00BF00000020D34D62104F
:1006A00080B483B000AF7860064A7B68136000BFF7
:1006B000044B1B68002BFBD100BF00BF0C37BD46AD
:1006C00080BC7047240000200000000000000000F3
:1006D000074B19680868B0E8F00F80F30988BFF38A
:1006E0006F8F4FF0000080F311884EF00D0E7047B1
:1006F0002800002000BF00BF000000000000000034
:10070000EFF30980BFF36F8F0D4B1A6820E9F00FEC
:10071000106008B54FF0500080F3118800F03CF9EC
:100720004FF0000080F31188BDE8084019680868A0
:10073000B0E8F00F80F30988BFF36F8F704700BFF8
:100740002800002000BF00BF80B582B000AF4FF08E
:10075000500383F31188BFF36F8FBFF34F8F7B601C
:1007600000BF00F05FF80346002B03D0064B4FF0AC
:1007700080521A6000233B603B6883F3118800BFFE
:1007800000BF0837BD4680BD04ED00E080B485B0F1
:1007900000AF786039607B685B68FB603B68FA6833
:1007A0005A60FB689A683B689A60FB689B683A6885
:1007B0005A60FB683A689A603B687A681A617B689D
:1007C0001B685A1C7B681A6000BF1437BD4680BC8A
:1007D000704780B485B000AF78607B681B69FB60B0
:1007E0007B685B687A6892689A607B689B687A68C5
:1007F00052685A60FB685B687A689A4203D17B68EA
:100800009A68FB685A607B6800221A61FB681B6863
:100810005A1EFB681A60FB681B6818461437BD46F1
:1008200080BC704780B586B000AF00237B614F4B22
:100830001B68002B40F08F804D4B1B6801333B61E0
:100840004B4A3B6913603B69002B21D1494B1B6824
:100850001B68002B0BD04FF0500383F31188BFF3BC
:100860006F8FBFF34F8F3B6000BF00BFFDE7414B71
:100870001B68FB60404B1B683E4A13603E4AFB68A6
:1008800013603E4B1B6801333C4A136000F0E0F8F4
:100890003B4B1B683A699A4248D3364B1B681B682E
:1008A000002B04D1364B4FF0FF321A603EE0314B43
:1008B0001B68DB68DB68BB60BB685B687B603A69B0
:1008C0007B689A4203D22E4A7B6813602EE0BB6895
:1008D00004331846FFF77DFFBB689B6A002B04D0EA
:1008E000BB6818331846FFF774FFBB68DB6A012248
:1008F0009A40244B1B681343224A1360BB68DA6A90
:1009000013469B0013449B001F4A1A44BB680433E0
:1009100019461046FFF73AFFBB68DA6A1B4B1B68A3
:10092000DB6A9A42B9D301237B61B6E7174B1B6898
:10093000DA6A154913469B0013449B000B441B685D
:10094000012B01D901237B61114B1B68002B07D0C0
:1009500001237B6104E00F4B1B6801330D4A1360D8
:100960007B6918461837BD4680BD00BFB000002027
:10097000980000209000002094000020A800002093
:10098000AC0000209C0000202C000020280000204B
:10099000A4000020A000002080B487B000AF274B47
:1009A0001B68002B03D0264B01221A6040E0244B29
:1009B00000221A60234B1B68FB60FB68B3FA83F3C9
:1009C000FB72FB7AC3F11F037B611F497A691346EF
:1009D0009B0013449B000B441B68002B0BD14FF072
:1009E000500383F31188BFF36F8FBFF34F8F7B608A
:1009F00000BF00BFFDE77A6913469B0013449B00CC
:100A0000114A13443B613B695B685A683B695A6011
:100A10003B695A683B6908339A4204D13B695B6879
:100A20005A683B695A603B695B68DB68074A136038
:100A300000BF1C37BD4680BC704700BFB00000201F
:100A4000A40000209C0000202C0000202800002092
:100A500080B483B000AF0C4B1B681B68002B04D123
:100A60000A4B4FF0FF321A6008E0074B1B68DB6847
:100A7000DB687B607B685B68044A136000BF0C37EF
:100A8000BD4680BC704700BF90000020AC00002035
:100A9000002103E00B4B5B58435004310A480B4BD9
:100AA00042189A42F6D30A4A02E000231360043245
:100AB000084B9A42F9D3FFF777FB00F00FF8FFF7E6
:100AC00061FD7047200C0008000000200800002095
:100AD000080000204C020020FEE7000070B50F4B1C
:100AE0000F4DAB42A3EB050607D00024B61055F816
:100AF000043B01349847A642F9D800F07FF8094D2D
:100B0000094B5E1BAB424FEAA60606D0002455F8FF
:100B1000043B01349847A642F9D870BD140C000874
:100B2000140C0008140C00081C0C0008704700BFCF
:100B3000704700BF024B13B1024800F005B8704780
:100B400000000000550B0008002301461A46184615
:100B500000F014B838B5074D074C2C1BA41005D075
:100B6000013C55F8043D9847002CF9D1BDE83840C8
:100B700000F04AB8200C00081C0C00082DE9F843CE
:100B80001B4D0646286898460F469146FFF7CEFF54
:100B9000184B1C681CB3286865681F2D22DC4EB9F1
:100BA0006B1C0235636044F82570FFF7C1FF00201D
:100BB000BDE8F883012304EB8501C1F88890D4F8DF
:100BC0008821AB401A43022EC4F88821C1F808815D
:100BD000E6D1D4F88C211A43C4F88C21E0E7064C06
:100BE0001C60D8E7FFF7A4FF4FF0FF30E0E700BF3D
:100BF00004000020B8000020BC000020F8B500BFB1
:100C0000F8BC08BC9E467047F8B500BFF8BC08BCED
:040C10009E46704745
:080C1400350B0008790100080E
:040C1C00510100087A
:080C200000F36F06B400002090
:0400000508000A9154
:00000001FF
